:020000040000fa
:080000000002040000000000f2
:020000040000fa
:100008009402000094020000940200009402000090
:100018009402000094020000940200009402000080
:10002800940200008c220000940200009402000058
:1000380094020000d0220000940200009402000004
:10004800940200009402000094020000b021000015
:100058009402000094020000940200009402000040
:100068009402000094020000940200009402000030
:100078009402000094020000202400006024000084
:100088009402000094020000940200009402000010
:100098009402000094020000940200009402000000
:1000a80094020000940200009402000094020000f0
:1000b8009402000014230000582300009c23000031
:1000c800dc23000094020000940200009402000067
:1000d80094020000940200009402000094020000c0
:1000e80094020000940200009402000094020000b0
:1000f80094020000940200009402000094020000a0
:10010800940200009402000094020000940200008f
:10011800940200009402000094020000940200007f
:10012800940200009402000094020000940200006f
:10013800940200009402000094020000940200005f
:10014800940200009402000094020000940200004f
:10015800940200009402000094020000940200003f
:10016800940200009402000094020000940200002f
:10017800940200009402000094020000940200001f
:10018800940200009402000094020000940200000f
:1001980094020000940200009402000094020000ff
:1001a80094020000940200009402000094020000ef
:1001b80094020000940200009402000094020000df
:1001c80094020000940200009402000094020000cf
:1001d80094020000940200009402000094020000bf
:1001e80094020000940200009402000094020000af
:0801f8009402000094020000d3
:020000040000fa
:10020800940200009402000094020000940200008e
:10021800940200009402000094020000940200007e
:10022800940200008c220000940200009402000056
:1002380094020000d0220000940200009402000002
:10024800940200009402000094020000b021000013
:10025800940200009402000094020000940200003e
:10026800940200009402000094020000940200002e
:100278009402000094020000202400006024000082
:10028800940200009402000094020000940200000e
:1002980094020000940200009402000094020000fe
:1002a80094020000940200009402000094020000ee
:1002b8009402000014230000582300009c2300002f
:1002c800dc23000094020000940200009402000065
:1002d80094020000940200009402000094020000be
:1002e80094020000940200009402000094020000ae
:1002f800940200009402000094020000940200009e
:10030800940200009402000094020000940200008d
:10031800940200009402000094020000940200007d
:10032800940200009402000094020000940200006d
:10033800940200009402000094020000940200005d
:10034800940200009402000094020000940200004d
:10035800940200009402000094020000940200003d
:10036800940200009402000094020000940200002d
:10037800940200009402000094020000940200001d
:10038800940200009402000094020000940200000d
:1003980094020000940200009402000094020000fd
:1003a80094020000940200009402000094020000ed
:1003b80094020000940200009402000094020000dd
:1003c80094020000940200009402000094020000cd
:1003d80094020000940200009402000094020000bd
:1003e80094020000940200009402000094020000ad
:0803f8009402000094020000d1
:020000040000fa
:100400008fae20000e7f22000e0188000000000049
:1004100000012000200288000c000700c07f22009d
:100420000100200011000700000020000000e00093
:10043000020032000000020000000000122502004d
:10044000000000000040da000000fe004440a90067
:10045000c00f20000000e000030032000000200078
:10046000a00188004440a800000006009101880017
:10047000800078000000eb0015003700e2804000ab
:1004800032a0b4009101ba00e280400032a0b40072
:100490009102ba00e280400032a0b4000002eb00fa
:1004a000472bde00f507b200602ce10004003a00a3
:1004b0000059eb008301e900fdff3e000400370016
:1004c0006128e100010032000082eb000400070017
:1004d0001101ba000200e000e8ff3a000000060047
:1004e0003159ba008301e9000c0032002159ba00e9
:1004f0008301e900080032000400e00003003a0034
:10050000e280400032a0b400f5ff370011d9ba00f4
:100510008301e900faff3a008100e800e180400031
:1005200032a0b400000006000040da000000fe0027
:1005300003f0a200889fbe008a9fbe008c1f780037
:10054000c4000700cb0033006450e1004f003200cc
:100550006420e1005200320003826c0007003b007f
:100560000905d0000306d000820f54000c065d0080
:100570000200390002003200890178000306780089
:100580008582550004003d000003fd008103fd004d
:100590008502ea008b854200840f720002003b0056
:1005a00060001000e08018006011b8000005eb004a
:1005b0007a28e1000a00390006007800c75ddd00f6
:1005c000f707b200878075002d0037008281710027
:1005d0000a017800610560008180d1000080d300ad
:1005e0008502e900f9ff3b000604400087844800cb
:1005f00002003b0060041400e0841c000988a30092
:10060000070032008a8171008281710061016400fb
:100610008904d1000884d3008b05e8001700370057
:100620000978a30013003a000b00e0001300340027
:100630008b05e9000804440089844c000a447400d6
:100640000978a3000d003a000b00e0000700340019
:100650008b05e9000804440089844c0001003a003d
:100660000b0020000978a300f7ff32000001eb0027
:1006700002003700828171000a0178004f000700f4
:100680000cf0a70001f0a000830037006420e10017
:1006900002003a00838f6c00830033000801be0023
:1006a0000200be007c003700889fbe008a9fbe000b
:1006b0008c1f7800670007006e00330003866c0013
:1006c0006450e1002e0032006420e100330032006b
:1006d0006150e1002f0032006120e1003100320062
:1006e00085855500eb07b0000900200008042000b4
:1006f000050037000804440089844c000a003100da
:100700000603430087834b000001530081815b0097
:10071000f8ff33000203be000800a00008044400f4
:1007200089844c00f6ff3900c639dd00830173006f
:1007300001003200130020008904d1000884d30096
:100740000998a300050032000800a7000300a000dc
:100750008904d1000884d3008b05e8008904d10006
:100760000884d3000001eb000281d20013000700cf
:1007700001f0a1000cf0a70001f0a0004600370036
:100780006420e100480032000801be000200be0003
:10079000f7ff37006120e100430032006000b8003d
:1007a000f3ff37000000200001f82700f0ff3700ba
:1007b0004f89de008201780072003700810020003e
:1007c000618055000b003d000b00200061fe2f00f2
:1007d0000100e1001d0034008281710061016400ac
:1007e0008904d1000884d3000000e800faff3a0031
:1007f00071002000610064000300700002006000ce
:100800000900320061044400e0844c000988a5001e
:10081000050032008b05e8006808e10002003a009c
:100820008904d1000884d300f20f20000258e100af
:1008300005003d00c75ddd00f907b2008980750045
:1008400008007800000006000bf827008b007800f5
:10085000000005000004be00890007000003be0080
:100860000405be000200be0085000700844f75002d
:10087000000006000200be006450e10005003600e2
:100880006420e100020036000968a30001003a007c
:100890000800be000160a0004f0678004f05be00b2
:1008a0004f04be0000000600f0ff2f00f1ff2700fc
:1008b000f9ff3700889fbe008a9fbe008c1f78001a
:1008c000e4ff0700ebff330003866c006450e10097
:1008d000240032006420e100270032006150e10072
:1008e000220032006120e100210032008b854200ad
:1008f000eb07b1000134b800003ab8000804420028
:1009000089844a00013ab8000030b800888040006d
:1009100009014a00040033000000400081804800c3
:10092000020149008b05e900c909dd00830170005f
:100930000100320013002000c814de004814dd005e
:100940004709de001200b200c808de00088470000b
:100950009aff070001f0a1000cf0a70001f0a00031
:10096000cdff37006120e100cfff32000801be005b
:100970000200be00f7ff37006150e100fcff3a00c3
:10098000c9ff3700881f7800030478000300e000e7
:1009900007003d0060001000e080180060011900b1
:1009a000e081190002003b0001f02d000300370038
:1009b0000400070008f0a70001f0a0004f04780031
:1009c00000000600889fbe008a9fbe000082700063
:1009d0000402710004827100260032000004be008f
:1009e0000200be006011b8006b09200095022000d3
:1009f0000182cf000a0039000541b1000082cf001a
:100a0000070039000541b1000982cf000400390018
:100a10000541b1000882cf00010039000541b10055
:100a200005425200120032000a003b008281710030
:100a3000610164008100d1000080d3008984d3006b
:100a40000884d3008b05e8000442e800f7ff3a0071
:100a5000070037000804440089844c000000480067
:100a6000818048008b05e9000442e900f9ff3a0063
:100a700052ff07004f05be004f04be0000000600f5
:100a8000c70ade00f107b200f50fb200080032001d
:100a9000e1cf4200020032000170a00024000500f6
:100aa000810f7000010032000408050044000500b9
:100ab000810f700002003a00140005008502e90071
:100ac0000000400081c04800fcff3b000170a00016
:100ad00024000500889fbe000004be00050037000a
:100ae0000000fb008900780019000700e10f4000ba
:100af0000400320038407800e04f5000f8ff3a0020
:100b00000000eb004f04be0000000600881f7800c4
:100b100061ac2000efff07000004780061ac20000a
:100b2000a00020000a000700080078004f047800a9
:100b3000000006000000fa0068815700cfb8970057
:100b400060ac2000030107000080fa0000000600ee
:100b5000889fbe000104780038029000e202620023
:100b60008084eb003b003200040378000620b200d2
:100b70009802900002003a00e08f520035003a00df
:100b80000490a0003404980080047800f90fb200ab
:100b9000e08f520002003a00a8029000050c780095
:100ba000ea8f540005003a000408b20003003a003e
:100bb00088007800d0002000e5ff070018029000b0
:100bc000d8029000850f52000b0032000402e800aa
:100bd0001404980018027800094a7800040ce80010
:100be00015c0b30004ae2000054a7800ea8f540017
:100bf00018003a00050037008800780009407800a6
:100c00001f050700800478001200370038029000aa
:100c10000410b2000f00320018019000a8009000ec
:100c2000480090005a05070018029000840f5000f9
:100c300004003200380290000403b300340498002a
:100c40008084eb000002eb0014049800280290005e
:100c5000040c7800090078004f04be000000060074
:100c60000800fa00889fbe008a9fbe000084fb0037
:100c7000d4c6b300844f5000340036004b06200029
:100c8000110009000b84d800810578007200400033
:100c90004300dd0009942000008044006022b80079
:100ca0000600200007fe23005001be004000be00e9
:100cb0002a0707000002be000203be0084bf9f0097
:100cc00095bf9f00a6bf9f00b7bf9f00aa0020004e
:100cd000110009008a85d80080057800e985450063
:100ce000c35ddd008b8544003b02be002b03be00cc
:100cf0000fb897009fb897002fb99700bfb997001a
:100d0000160707000002be000203be0084bf9f005a
:100d100095bf9f00a6bf9f00b7bf9f0011000900ad
:100d20000a84d800010478004344dd00888444002c
:100d30003902be002903be000fb897009fb8970084
:100d40002fb99700bfb997001d003700ea4f500038
:100d500013003600aa002000110009000a84d80000
:100d600001057800690440004344dd000994200037
:100d7000088444006022b8000600200007fe23001b
:100d80003800be002801be00f40607004355dd0010
:100d90008a8444003902be002903be0008003700df
:100da0004344dd0004942000080442006022b8009f
:100db0000600200007fe23003800be002801be0008
:100dc000e60607004f05be004f04be000080fa0093
:100dd000000006000800fa00889fbe008a9fbe003f
:100de000d4c6b300e04f500022003d000040ea00ae
:100df0000004fb00844f50000a0034004406200029
:100e0000110009000404d800a90020001100090005
:100e10008900d800e9004000c308dd000a942000e2
:100e200020003700ea4f50000f003400a4002000db
:100e3000110009000404d800690040004300dd00ef
:100e40000494200000004200430cdd000802420030
:100e50005403be004402be005001be004000be006c
:100e6000be060700370037004344dd00049420002d
:100e7000310037000004fb00844f50002300340091
:100e800044062000110009000404d800a900200035
:100e9000110009008900d800e9004000c308dd0006
:100ea0000a892000810045003102be002103be00f6
:100eb0008b0920008a8545003b00be002b01be0047
:100ec000a60607000002be000203be0084bf9f000a
:100ed00095bf9f00a6bf9f00b7bf9f0011000900ec
:100ee0000904d800010478004344dd0008054500ea
:100ef0003a02be002a03be000fb897009fb89700c1
:100f00002fb99700bfb99700d5ff3700ea4f5000bf
:100f100007003400a4002000110009000404d800d8
:100f2000690040004300dd0004892000c5ff370050
:100f30004344dd0004892000080442003800be005c
:100f40002801be004f05be004f04be000080fa001d
:100f5000000006002f04b000889fbe008a9fbe00dc
:100f60008c9fbe008e1f7800a0af9f00c1a79f007e
:100f7000b2af9f006000b8006011b800d0a79f001a
:100f8000e1a79f00f2a79f0083af9f008006eb00c0
:100f90002f043700cfa097008100e800c1a79f0071
:100fa00054c2b300844f500006003a000103780099
:100fb0000006eb0000c3b30007c2b300b1c2b30028
:100fc000070037000000fb00afa89700e0fe070015
:100fd000e10f40001e0432008d06e8001c043700bb
:100fe00006027800b6427800d2c2b30082cf520027
:100ff0000900320005003c0087cf52000800320093
:1010000081cf52000c003a000700370080cf520019
:1010100009003a00060037000c30a000f0ff37004e
:101020000c00a000eeff37000c10a000ecff370012
:101030000c20a000eaff37006203660001003200c6
:101040000c00a10068036600010032000c20a10022
:101050000503fb000603b100e90f53000d003e003d
:1010600084027800070020006a3bb9003502fb00cb
:101070000403b10086034200050278001503fb005b
:101080000603b100e90f5300f7ff360097af9f004a
:101090000a0037000003eb0096af9f00a6c2b30022
:1010a00086cf520005003a00bfab9700470078009a
:1010b000b7af9f0090af9f000402e800e5c2b30005
:1010c00094cf120017003a000ce0a000e4c25200d6
:1010d000d4cf120003003200840278000700200001
:1010e000090037003fa99700c2017800b2af9f0006
:1010f00083b79f000402e800c6c6b3000d003700a6
:101100006a38b90080034300050278003503fb000c
:101110000603b100e90f5300f9ff360087b79f00bf
:10112000f5ff37000cc0a0008002eb0085b79f00e0
:10113000f1ff370084037800b74278000702780097
:1011400086cf52002d003200c7a79f00c4c6b3004f
:1011500084cf520014003c006842520084cf5200f9
:101160002400320009003c006c42520084cf52003f
:101170002e0032006b42420084cf520071003200d8
:10118000e0cf5200b70332008e00370064c6b300d0
:1011900084cf52001f0032006342420084cf5200cd
:1011a00088003a001300370034c7b30084cf5200e0
:1011b0002200320007003c006442520084cf5200fb
:1011c000170032000442e80084cf52007d003a004c
:1011d0001600370054c7b30084cf52007e0032009f
:1011e0006342420084cf520076003a00a5779f0008
:1011f00010003700a5779f0079003700f0036600e4
:1012000005012000010032000500280005067600d7
:10121000c8ff3700a5779f000ca0a0007000370022
:10122000a5779f000c60a0006d003700a5779f0098
:101230000c50a0000c70a00069003700a5779f003b
:101240003fab970046027800b6af9f0004047800d9
:10125000e00f520001003a0028ab2000880278001d
:101260000002eb00010037000402e80065437a0049
:10127000e04f5300fcff3a00840478008fb39700de
:10128000e08f530003003200898f530001003100ca
:10129000870478000007eb001fa89700890f500013
:1012a00001003600090750006806660014003a0085
:1012b00007003700afa897000002200024fe0700b7
:1012c000e10f4000010032008d06e8000e07e90042
:1012d000e00f5700f7ff3a000087eb0008003700e7
:1012e000080278003400fb0004047800afa89700df
:1012f00017fe0700e10f4000010032008d06e800f4
:10130000090278008404e900e00f5200f4ff3a007b
:10131000e00f56004e03320007003700afa89700d9
:10132000000220000afe0700e10f40000100320029
:101330008d06e8000e07e900e00f5700f7ff3a00be
:1013400043033700bfa8970041027800b1af9f0068
:1013500004007800cf80de0001017800820178006f
:10136000c0af9f00d1af9f00e2af9f00f3af9f00df
:101370004800de00480add0000007200a0779f00f0
:10138000f002660009003200e04f50000700320012
:10139000e14f400005003200b0779f008fda9700e0
:1013a000c5779f0029002000030037000fdb97005e
:1013b000b6779f001900200038fb2f000f0444006f
:1013c000aeff3700a5779f0028fb2f000f044400d5
:1013d00019002000a9ff3700a5779f000c0cb3006f
:1013e0000470200004026600ba01320004002100eb
:1013f00004026600020032006700200087b79f00e9
:1014000070026600090032003faa97004401be0046
:101410004400be00b4af9f00c0af9f00d1af9f009b
:10142000e2af9f00f3af9f000a003700bfaa97000a
:101430004500be00b5af9f00b00407000002be002b
:101440000203be00c4af9f00d5af9f00e6af9f0070
:10145000f7af9f006022b8006033b8004fa8970034
:10146000dfa897006fa99700ffa99700f503070071
:10147000e00f50000a003d004fa89700dfa897003a
:101480006fa99700ffa9970003f0a200c0af9f00cb
:10149000d1af9f00e2af9f00f3af9f003c00b300cd
:1014a0000002eb00b49f9f006022b8006033b800d8
:1014b0004fa89700dfa897006fa99700ffa9970092
:1014c00044040700e00f5000350032004fa8970099
:1014d000dfa897006fa99700ffa99700960507005e
:1014e00062fb2f000f014100ff0407003f989700a7
:1014f0000000e9006300b900a40020001100090009
:101500000400d800b09f9f00e00f500002003d0093
:101510000000e900b09f9f003f9c97000840ea0050
:101520002cfe07004faa9700dfaa97006fab970029
:10153000ffab9700090507000002be000203be00d2
:10154000d4a79f00e5a79f00f6a79f0087af9f0045
:101550006022b8000600200007ff2300b90307003f
:10156000e00f500002003d000804e9000b003700c6
:101570006022b80006002000470224005fa0970008
:10158000efa097007fa197008fa99700b2030700f3
:10159000e00f5000020035000804e800b89f9f00eb
:1015a0008fb29700f88f52000f003c000540780082
:1015b000abfd07000002be000203be004fa897006b
:1015c000dfa897006fa99700ffa9970020030700e5
:1015d0000002be000203be00c4af9f00d5af9f0053
:1015e000e6af9f00f7af9f003f9c9700e90f5400c4
:1015f00015003c006022b8006033b8004fa8970087
:10160000dfa897006fa99700ffa99700f1030700d3
:10161000e00f5000320032004fa89700dfa897007b
:101620006fa99700ffa9970053040700e00f50002f
:10163000e08f5800e00f5900e08f590028003a0071
:10164000e10f5400260034000400200005002e00a5
:10165000b6e02200170124005fa09700efa09700da
:101660007fa197008fa9970076030700e00f500035
:1016700002003d007304540001003700720454005e
:10168000b89f9f006f709700d2fd07000002be0058
:101690000203be00d4a79f00e5a79f00f6a79f0006
:1016a00087af9f004fa89700dfa897006fa997000a
:1016b000ffa997006d0307002f0407000205be0075
:1016c0000004be006000b8006011b800c0af9f0009
:1016d000d1af9f00e2af9f00f3af9f00170037002c
:1016e0004fa89700dfa897006fa99700ffa9970060
:1016f000210407000205be000004be004f040700dd
:101700000002be000203be004fa89700dfa89700aa
:101710006fa99700ffa99700050507000002be000a
:101720000203be00c4af9f00d5af9f00e6af9f008d
:10173000f7af9f000002eb00b49f9f00819f200045
:1017400010c0b300080037003102be003103be00f4
:101750000440e10005c8e10006d0e10007d8e1003f
:10176000030039000040e800f44f5000f6ff3a0053
:10177000a0779f003f9a97009faa9700048252008b
:101780000fb39700060252000000fb000007520052
:10179000e00f5300010032000e07e900630266000b
:1017a000010032000e07e900640266001d003200ed
:1017b000e202660061026600e08f5200060032001d
:1017c000b0022000e00f5200010032000080e8006b
:1017d000afa8970004003700e00f52000e0032005f
:1017e000afa8970000022000d9fc0700e10f4000dd
:1017f000090032008d06e80007003700afa8970007
:1018000000032000d2fc0700e10f4000010032007d
:101810008d06e8000e07e900e00f5700f7ff3c00d7
:1018200030003700680266000a003a0007003700ff
:10183000afa8970000022000c5fc0700e10f4000a0
:10184000010032008d06e8000e07e900e00f5700a6
:10185000f7ff3c00e202660061026600e08f520082
:1018600006003200b0022000e00f520001003200fa
:101870000080e800afa8970016003700e00f520084
:1018800018003200afa897000002200011003700b6
:101890008502fb00c32add00079f200085824300ec
:1018a0005503be004502be000800be000a01be008e
:1018b00077050700a4002000050020006033b80071
:1018c0007a0507000403200000024200afa8970039
:1018d000040078009efc0700e10f40000100320088
:1018e0008d06e8002f7297008442e900a5779f00db
:1018f000e04f5200e6ff3a0008003700afa897001b
:101900000003200092fc0700e10f400001003200bc
:101910008d06e8000804e900b89f9f003f9c9700ef
:10192000e00f5400f5ff3c000fb09700f20f50009d
:101930000300340024c1b300a4779f0002003700e5
:101940008fe09700a1779f002f7297008402fb0021
:101950000fb197008502510095af9f00e04f5200f4
:1019600006003200afa89700e002200078fc0700d4
:10197000e10f4000010032008d06e8002f70970053
:1019800014fd07000002be000203be004fa897002e
:10199000dfa897006fa99700ffa99700ef03070042
:1019a00075030700220037008502fb00c32add0013
:1019b000039f2000858241003500be002501be0046
:1019c00080b79f0091b79f00a2b79f00b3b79f0059
:1019d0000203be000002be000800be000a01be00f5
:1019e0002b050700a4002000050020006033b8008c
:1019f0002e0507000403200000024200afa8970054
:101a00000400780052fc0700e10f400001003200a2
:101a10008d06e8000fb297009fb297002fb3970092
:101a2000bfb397000800be000a01be001f050700f3
:101a30000205be000004be002f7297008442e90038
:101a4000a5779f00e04f5200d7ff3a000203be0087
:101a50000002be009fac97000f003700afa89700b0
:101a600000032000c4b79f00d5b79f00e6b79f00d2
:101a7000f7b79f0036fc07004fb29700dfb2970020
:101a80006fb39700ffb39700e10f400001003200f1
:101a90008d06e8008904e900e08f5400efff3a006a
:101aa000680666006a013200e00f570068013400e2
:101ab000afa897000002200025fc0700e10f4000be
:101ac000010032008d06e8000e07e900f8ff3a0039
:101ad0005f0137008c027800050cb2002b003a0041
:101ae000e00f560005003d00bfa897004105be006d
:101af0004104be00b1af9f001700370070026600be
:101b00000f0032003faa97004401be00b4af9f000f
:101b100082a79f0093a79f0084027800150290007f
:101b20004fa2de00a4a79f00b4a79f000fa49700b8
:101b30009fa497002fa59700bfa597000600370028
:101b4000bfab970047047800b7af9f00cfc4de005b
:101b5000090578008a057800e00f5400e08f5c00ea
:101b6000e00f5d00e08f5d0023003d003c00b3000e
:101b70006022b8006033b8000804520089845a001b
:101b80000a055b008b855b001b003700e00f5600e9
:101b900005003d003fa897004005be004004be0080
:101ba000b0af9f0014003700f00266000c00320056
:101bb000bfaa97004501be00b5af9f00c29f9f001e
:101bc000d39f9f00e49f9f00f49f9f004f9c97002e
:101bd000df9c97006f9d9700ff9d970006003700e0
:101be000bfab970047047800b7af9f000900200003
:101bf0000a0020000b0020000fb09700e00f5000fb
:101c000009003a001100200081b79f00e00f540046
:101c1000e08f5c00e00f5d00e08f5d0002003200ad
:101c20000001eb0082b79f008c017800030cb2002a
:101c3000c3af9f0004042000848f51002c003200a9
:101c400003003c00e08f5100080032003c003700e8
:101c500004082000cfaa9700848f520010003200a1
:101c6000040c2000848f520035003a00859f20002c
:101c700014c0b3003500be003501be000040e100d5
:101c800001c8e10002d0e10003d8e1002b003900d7
:101c90000442e800f44f5200f6ff3a0027003700f4
:101ca00014c0b30000012000010020006011b80042
:101cb0000040e10001c8e10002d0e10003d8e100ea
:101cc0001e003900460020000000d0008180d200b4
:101cd0000281d2008381d2000603e900faff3a00b4
:101ce0000442e800f04f5200f1ff3a0013003700c1
:101cf00014c0b30080002000010020006011b80073
:101d00000040e10001c8e10002d0e10003d8e10099
:101d10000a003900370020000000d0008180d20086
:101d20000281d2008381d2008703e900faff3a00e2
:101d30000442e800f54f5200f1ff3a00a4779f00fb
:101d40002f7097000002fb008fb09700810f5200a8
:101d500002003d00a1779f00040037000fb19700fb
:101d6000840f510001003d0084b79f009fa9970098
:101d7000e08f51000400320063026600020032006e
:101d80008301e90093af9f00040024000402660071
:101d9000090032001faa97008fb29700850f5200ea
:101da000030034000502520094af9f000200370088
:101db0000003eb0096af9f00af7397000702fb0094
:101dc0000007eb001fa89700840f500001003400ab
:101dd00004075000640266001c003200e202660044
:101de00061026600e08f520006003200b00220005f
:101df000e00f5200010032000080e800afa8970019
:101e000004003700e00f520006003200afa8970030
:101e1000000220004efb0700e10f400001003200ed
:101e20008d06e800e00f570075003200afa897005c
:101e30000003200046fb0700e10f400001003200d4
:101e40008d06e8000e07e900f6ff3700e00f5700a7
:101e50000a0032006802660008003a00afa8970046
:101e6000000220003afb0700e10f400001003200b1
:101e70008d06e8000e07e900f8ff3a00e20266006e
:101e800061026600e08f520006003200b0022000be
:101e9000e00f5200010032000080e800afa8970078
:101ea00004003700e00f520055003200afa8970041
:101eb0000002200026fb0700e10f40005000320026
:101ec0008d06e8004e0037008fb097008100e900d2
:101ed00081b79f004fa9970003042000830f510092
:101ee0003000320003003c00e00f510008003200d7
:101ef0003b00370004082000cfaa9700848f5200cf
:101f000014003200040c2000848f520034003a0088
:101f10000fb397004332dd00079f20000702420005
:101f20005403be004402be000800be000a01be0009
:101f3000d7030700a4002000050020006033b8008c
:101f4000da0307000cc3b3000c464000ac779f00d7
:101f50002300370014aa20001fa89700e00f5000ac
:101f60000100320004a920008fb09700c20add00f2
:101f70000800be000a01be008502e900050033002a
:101f80008301d1000281d3008180d3000080d3007f
:101f9000f9ff37006f00600064407800a0779f0071
:101fa0000f0037000fb197006312b9000800be00a0
:101fb0000a01be00040678000c06e90005003300a3
:101fc0008301d1000281d3008180d3000080d3003f
:101fd000f9ff3700674260000443b000a4779f0018
:101fe000af7097000100fb00afa89700d8fa070078
:101ff000e10f4000060032008d06e80004003700c3
:102000000c0178000202b20092af9f008cbf9f00cb
:102010008fb19700e08f5100abff3a000fbe9700e1
:10202000680666000a003200e00f5700080034001e
:10203000afa8970000022000c5fa0700e10f40009a
:10204000010032008d06e8000e07e900f8ff3a00b3
:102050004fa2970014407800a0779f00e04f5000f7
:10206000ccfb3a000d0078004f0778004f06be0009
:102070004f05be004f04be002f04b1000000060053
:102080000200fa00889fbe00a0ff9f0001047800b4
:1020900038029000840278000504b2000200320089
:1020a0000000fb0035003700e202620005003a0044
:1020b0000403b30034049800150498000080eb007a
:1020c0002e003700d8049000e08f540006003a003c
:1020d00012002000e6805700480090002c00070006
:1020e0001904980023003700a8029000e08f5200e6
:1020f00008003a0035ae200025049800050c780051
:102100002500200055049800150498000430a00014
:102110003404980018019000a80090004800900036
:102120001b000700280290008082eb001504980035
:10213000affa9700054a7800040ce8002ffa9700e0
:10214000ea4f52000b003a00380290000410b2002f
:102150000800320018019000a8009000480090008c
:102160000b0007000002eb0014049800a802900086
:10217000050c78002ffa97000400fb004f04be0006
:102180000080fa000000060000c0da00000006002f
:102190000a00fa00e20f500022003e00345780008f
:1021a000e10f520006003200872320004623200062
:1021b0002423200005232000e08f530004003a0070
:1021c0008722200046222000242220000522200011
:1021d000000028001500600003003a00800b780022
:1021e00007002800958a7300054020009482620051
:1021f00001003a0014a0a000820278000600370017
:10220000940378000710b200fdff3200b103fb0019
:10221000070b78008502e900e08f5200f8ff3a00d2
:102220000800370034002000b4bf9f00c0bf9f00eb
:10223000d1bf9f00e2bf9f006a805700d2ff070016
:102240006fb99700020078000080fa0000000600d5
:102250002800fa00889fbe008a9fbe008c9fbe00a7
:1022600007067800878669000c003b0003047800ad
:102270008704780008f0a10009f0a100840f500045
:10228000858f5800860f5900890f5c0003003300ca
:102290000cf0a20001003a000cf0a100fe000700c3
:1022a0006400e1005f003200780147006408e1004b
:1022b000610032006c014700748557003200be0097
:1022c0001201be003a04be001a05be001e039000b3
:1022d000be0a90008503530006003d000004fd0087
:1022e0008104fd000205fd008305fd008703ea006f
:1022f000050378000df8a300040032006004140008
:10230000e0841c0060051d00e0851d006022b8000f
:102310007d0320000d38e1008006eb000b00390042
:102320004433dd00f300b20083017300390037004d
:10233000848272000d027800e10664008b85d10072
:102340000a85d3008984d3000884d3008703e90079
:10235000f7ff3b0008004000898048000a0149005f
:102360008b81490004003b0060001000e0801800f1
:1023700060011900e08119000358a3000900320030
:102380008d82720084827200610260008301d1003c
:102390000281d3008180d3000080d3000603e800cf
:1023a0001b0037000348a30017003a000600e000b6
:1023b000170034000603e9000d00a30000004800e8
:1023c0008180480002014900838149000348a3003d
:1023d0000f003a000600e000090034000603e9009f
:1023e00000004000818048000201490083814900cb
:1023f00001003a000003eb000348a300f5ff3200a0
:102400006022b80002003700848272006182660098
:102410007500070003f0a1000cf0a70003f0a00076
:10242000b1003700640147006408e10002003a008f
:102430000df8a300a9003a003200be001201be0050
:10244000a90037008f1fd100fa0207008f87e9002b
:102450000000e00000000600809feb00f50207008e
:102460008f87e9000000e000000006002800fa0065
:10247000889fbe008a9fbe008c9fbe0003866b00b3
:10248000850007006400e100440032006408e100b8
:102490004a0032006100e100460032006108e100bc
:1024a00049003200ec0647006000b8003d02be0063
:1024b0003d03be00f48657006011b8003d04be0025
:1024c0003d05be007d0320000b0037000000a0008a
:1024d0008d06e900130032000402420085824a00a2
:1024e00006034b0087834b000000400081804800ba
:1024f00002014900838149000802520089825a0082
:102500000a035b008b835b00f0ff3b000802420084
:1025100089824a000a034b008b834b008d06e90039
:10252000edff3a008482720086827200f707b200e3
:102530008782720001003200150020001e04900006
:102540003e0b900006035400e63fb0000368a30072
:10255000070032000000a7000500a0008301d100a1
:102560000281d3008180d3000080d3000603e800fd
:102570008301d1000281d3008180d3000080d30089
:102580000002eb000482d2001700070003f0a10054
:102590000cf0a70003f0a0005300370064024700ce
:1025a0006408e1004d0032003400be003401be007a
:1025b000f6ff37006108e100480032006011b80002
:1025c0006000b800f1ff370003ff27000200200081
:1025d000fbff3700801feb00960207008f87e900a2
:1025e0000000e00000000600180020005700200056
:1025f000080453000d003d000600200097fc2f004a
:102600000740e1001e003400848272006102600015
:102610008301d1000281d3008180d3000080d300e8
:102620000804e800f8ff3a00470020006104600059
:1026300005047400040464000d00320061004000d1
:10264000e080480060014900e081490003b8a5002e
:10265000070032000603e8006538e10004003a0094
:102660008301d1000281d3008180d3000080d30098
:10267000f87f20000830e1000300350008037800ef
:102680006000b8006011b8004433dd00f300b20010
:102690008301730000000600680447000294be0036
:1026a0000094be00fc0447008694be008494be00e3
:1026b00009007800a802070008007800a6020700b9
:1026c00099007800814f70000b003b000800be00ad
:1026d000810207004f00b10003003700f3ff27001d
:1026e000f2ff2f006110b9004f06be004f05be007b
:1026f0004f04be000080fa0000000600810378004d
:10270000dff807000001be006000b8000478a300f5
:1027100013003a006220e10015003e000d00390070
:102720008301d1000281d3008180d3008301d100d5
:102730000281d3008180d3008301d1000281d300c4
:102740008180d3000538b000c42add00f300b20058
:102750008381720007f0a70003f0a00000000600cc
:10276000f3ff2700f2ff2f006110b900fbff3700d5
:1027700003ff2700f7ff37001400fa00889fbe0010
:102780008a9fbe008c9fbe000004be000205be00f2
:10279000680047000a90be000890be006e02070065
:1027a0000070a7000bf0a1000bf8a30020003a0076
:1027b0009e0990000e099000fe0090006e009000af
:1027c0009e0290003443200084825200c6ff3200f3
:1027d0000a003c00b4fc2f000428e100140034007f
:1027e0008301d1000281d3008180d3000080d30017
:1027f0008502e800faff3a00bbff3700b400200072
:102800000428e10007003c000000400081804800ef
:1028100002014900838149008502e900faff3a007c
:10282000b1ff37000300280002002000010037003c
:102830006011b8006000b800abff3700889fbe0091
:1028400000827000040271000482710024003200d2
:1028500036432000c50020008383cf000a003900e2
:102860000541b1008283cf00070039000541b10066
:102870008183cf00040039000541b1008083cf007f
:10288000010039000541b10085c353006022b80042
:10289000120032000a003b00848272006102600074
:1028a0008301d1000281d3008180d3000080d30056
:1028b0000603e8008743e800f7ff3a000700370007
:1028c00000004000818048000201490083814900e6
:1028d0000603e9008743e900f9ff3a0042ff0700d9
:1028e0004f04be00000006001400fa00889fbe00de
:1028f0008a9fbe008c9fbe00040678000004be00c4
:102900000205be00680047000a90be000890be00a5
:10291000110207006200e1000800be000a01be00cb
:10292000040020000b003a001e029000e43fb100ba
:102930006e009000fe0090000e0990009e0990002d
:10294000f300b20005fe2300858171000bf0a700a3
:1029500003f0a000040e780063ff37002800fa009f
:10296000889fbe008a9fbe008c9fbe0003866b00be
:1029700049ff07000028a30064003a000128a300d3
:1029800067003a000008a30062003a000108a300b3
:1029900065003a001e009000be08900081064000cd
:1029a000ed3fb100f4805700ee019000111ab8001d
:1029b0008e099000311bb8009e099000311cb800b0
:1029c000511db800f485570046000700fe01900035
:1029d0003a0007008b85e8003e0007008e09900052
:1029e00040000700ee019000340007008b85e800ee
:1029f000380007008e099000400007009e099000f3
:102a00001b18b800890440000a854800fe019000a8
:102a1000340007008b85e80038000700ee019000c5
:102a2000300007008e0990001b18b8008904400090
:102a30000a8548000a98a30008003a0004024200f0
:102a400085824a0006034b0087834b0008044c0034
:102a500089844c000a054d008d06e90084827200cd
:102a6000850273004c3add008502720001003200dd
:102a700015002000443ade001400b2004538de00a4
:102a8000cb45dd000b007000c540de00cb4ddd0006
:102a90008b8070004549de00cb55dd000b017100d5
:102aa000c551de000d037800cffe070003f0a10042
:102ab0000cf0a70003f0a0000bff37001b18b800b4
:102ac0008502400006834800e0834b0060044c0010
:102ad000070037001b18b800060340008783480032
:102ae000faff37001b18b80087034000088448002d
:102af000e0844c0060054d00000006001b18b80083
:102b00000804400089844800faff37000108a30048
:102b1000f2fe3a005800be005801be00e3ff370045
:102b20000008a300edfe3a0009047800f9ff370021
:102b300007f0a200c6fd37001400fa00889fbe000f
:102b40008a9fbe008c9fbe000005be000206be002c
:102b5000680047000c90be000a90be007e0107008e
:102b60006400e1001a00320016003e006100e1003e
:102b70001a0032006e049000fe0490000e0b9000cc
:102b80009e0b90006011b8009e0590000b38b100bc
:102b9000d501200082817100610164008703d100aa
:102ba0000683d3008984d3000884d3008502e9001a
:102bb000f8ff3a0001f707000df0a70001f0a000b0
:102bc000c9fe3700f1ff2700f0ff2f00c6fe3700d7
:102bd00001f8270000002000f7ff37006000b80070
:102be000f5ff3700889fbe008a9fbe003004be00fc
:102bf0002005be000404440085844c0006054d00f9
:102c000087854d000898be000a90be000440e10090
:102c100005c8e10006d0e10007d8e100020031005c
:102c2000680040001008e8004f05be004f04be00d9
:102c3000000006001000fa00889fbe008a9fbe00b8
:102c40000605be000404be003002be002003be0024
:102c5000c4b79f00d5b79f00e6b79f00f7b79f00a6
:102c60000802520089825a000a035b008b835b00d2
:102c700084bf9f0095bf9f00a6bf9f00b7bf9f0066
:102c80000498be000698be00110020004fb29700c5
:102c9000dfb297006fb39700ffb397000820e10001
:102ca00009a8e1000ab0e1000bb8e1000100390019
:102cb0008000eb00108810004f05be004f04be00de
:102cc0000080fa00000006001400fa00889fbe0091
:102cd0008a9fbe008c9fbe003f0007000605be0015
:102ce0000404be000006eb00ccb79f00bcb79f00f9
:102cf000acb79f009cb79f008cb79f000d042000cd
:102d00004fb39700bfb29700860343002fb29700de
:102d1000e00f530004003d003d0007000f0040009d
:102d2000b0ff070003003700390007000f00400024
:102d3000c0ff0700cfb2970095bf9f00e08f520001
:102d4000090035002b0007001400200005002000ba
:102d50006033b800000072008180720002017300cd
:102d6000838173001c0007000c06e8008d0f5600dd
:102d7000e3ff3a001fba9700e00f520005003d0044
:102d80000802be000a03be0000fe2f000f00400034
:102d900094ff07004faa9700e00f520008003a0086
:102da0000fb497009fb497002fb59700bfb5970059
:102db000d8b79f00e9b79f00fab79f008bbf9f006d
:102dc0000c0007004f06be004f05be004f04be00ba
:102dd0000080fa0000000600010007000000060065
:102de00090b79f00a1b79f00b2b79f00c3b79f00e5
:102df0000000060001000700000006001fb0970059
:102e0000afb097003fb19700cfb197000000060028
:102e10004f2bde0087037300a7b79f004f23de0010
:102e2000858242008502730095b79f00ffaa970034
:102e30004f2bde00040242000402730084b79f009f
:102e40006faa97004f23de0085824200850273003f
:102e5000f5af9f00e9ff07004f18de0004024200b3
:102e600000027200e4af9f00e4ff07000000400092
:102e7000818048000201490083814900d8ff070092
:102e80000802be000a03be0000fe2f00000006007c
:102e9000881f780018002000881f78008aff07002c
:102ea0008f87e9004f04780000000600801feb00c8
:102eb00085ff07008f87e90000000600889fbe009d
:102ec0008a9fbe00e00f5000e08f5800e00f5900cd
:102ed000e08f59000c003d006044b8006055b80018
:102ee0000000540081805c0002015d0083815d0070
:102ef000180020001500070008003d00180007001a
:102f00000004eb00050037000004eb000f00070091
:102f100002003d001200070018002000dcff07003f
:102f2000e00f5400060032006022b8006033b800a1
:102f30000000520081805a0002015b0083815b0027
:102f40004f05be004f04be0000000600e00f520017
:102f5000e08f5a00e00f5b00e08f5b00000006008e
:102f60006044b8006055b8000402540085825c00db
:102f700006035d0087835d0000000600889fbe0099
:102f80008a9fbe008c1f7800e00f5000e08f580031
:102f9000e00f5900e08f59000d003d006044b8007b
:102fa0006055b8000000540081805c0002015d00a3
:102fb00083815d001c0020000820e10009a8e100d9
:102fc0000ab0e1000bb8e1000d003d000800370039
:102fd0000006eb00e00f5200e08f5a00e00f5b00ac
:102fe000e08f5b0006003d006044b8006055b8000b
:102ff0000402540085825c0006035d0087835d0047
:10300000aaff0700e00f5600060032006022b80059
:103010006033b8000000520081805a0002015b005a
:1030200083815b004f0678004f05be004f04be0051
:1030300000000600889fbe008a9fbe008c9fbe00d5
:103040000404be000605be00809fbe00829fbe0035
:103050002f000700040678000800be000a01be0029
:103060002b000700840678004f03be004f02be000d
:103070008d4f76007fb0970013003300f0ff2f00d4
:103080008b8f6b0006003b000d0666000c00a7004e
:103090000a00370007f0a600100020000a003700e1
:1030a000880f5200898f5a008a0f5b008b8f5b005c
:1030b000030039001000200001003e000000200045
:1030c00007f0a7000000ea004f06be004f05be0053
:1030d0004f04be0000000600e48240001078a30008
:1030e00007003200640240001178a3003400be00e3
:1030f0001401be00040032000330a70000000600e7
:103100003500be001501be000330a000000006001f
:1031100005ff270005826100070032000428e10056
:1031200001003200240005000600070001003a00fb
:10313000440005000408050002000700f9ff3a00fa
:10314000140005006f826100810270008502710029
:103150008502720000000600800078005002be0068
:103160005003be004439de00f700b200f37f2000b8
:1031700003016100090032000218e10016003a0064
:1031800085017200830173008381730000082000b1
:1031900015003a004000200013003700850172003e
:1031a000830173008381730005003a0004a8be0008
:1031b00006a8be00100020000b0037000201e90045
:1031c0000402420085824a0006034b0087834b00bd
:1031d0000748a300f9ff32000740a00004a8be0082
:1031e00006a8be00200020008000980092009800f1
:0431f00000000600d5
:020000040000fa
:1031f4003b250000753b0000253300002e34000001
:10320400662600000d0a0000003b00002575000042
:103214003b45000072720000260d00000a00000009
:103224000d0a0000646300003d250000332e0000f9
:1032340036660000000d00000a740000693d0000bd
:1032440025750000000d00000a740000683d0000b0
:1032540025750000000d00000a740000743d000094
:1032640025750000000d00000a450000737400007d
:10327400616400006f200000426f00006d62000076
:10328400612300000d0000003b3900003b310000c9
:10329400260d0000003b0000393b000032260000f0
:1032a4000d0000003b3900003b300000260d0000fb
:1032b400003b0000393b0000332600000d000000f5
:1032c400232f0000004c0000543800002d5700004c
:1032d4004c0d000000530000656e0000736f000089
:1032e40072650000733a00000d000000467500008e
:1032f4006e630000696f00006e6100006d6900007c
:10330400656e0000746f0000204300006f720000bf
:1033140072650000637400006f0d0000004500003a
:103324007370000065720000616e0000646f00003d
:10333400204300006f6d0000616e0000646f0000a8
:10334400732e00002e2e00002e2e00000d00000013
:103354000d0a0000546f00006d610000206400003d
:103364006520000025750000204d000075650000f3
:10337400737400007261000073200000496e000045
:10338400696300006961000064610000212300009a
:103394000d0a000000230000546f00006d6100005e
:1033a400206400006520000025750000204d000009
:1033b40075650000737400007261000073200000e2
:1033c40054650000726d0000696e000061640000c5
:1033d400612100000d0a0000002300002575000093
:0833e400232f0000000000008f
:020000040000fa
:1033ec000200fa00004f7800000000001511800068
:1033fc000420200004826200e00f5200fbff320028
:10340c001e02fb00241188000080fa000000060058
:10341c001000fa00889fbe00004f980051079800da
:10342c0062079800730798006022b800048fbe00f2
:10343c006022b80024079800350798006e029000af
:10344c00e00f52003f0032007e029000e00f52006d
:10345c003c003200ee0290007e029000848f5200fd
:10346c0038003d006e029000cfa2de000400be00ca
:10347c00ccf407000004be007e029000cfa2de0058
:10348c000400be00c7f407000002be000401be0029
:10349c000800be0081f407000002be00048fbe00cd
:1034ac00f4408000054180000401be001e00be00f7
:1034bc00fdf407000002be00048fbe00a440800093
:1034cc00cfa2de000400be00b6f407000002be006e
:1034dc000401be001e00be0012f407000002be0074
:1034ec00240798003507980094408000cfa2de0096
:1034fc000400be00abf407000002be000401be00d5
:10350c002e009000be00900064f407000002be0084
:10351c0024079800350798000e4a90000403fb001e
:10352c002e029000be029000849fbe00861f780081
:10353c00a48f2900841f78007bf50700e8875700cb
:10354c00070037000e4a90000402fb00841f78002d
:10355c0074902900841f780073f50700e4875700e6
:10356c00c480200014427800e14f520018003a0049
:10357c001e02be00849fbe0024912900841f780087
:10358c0069f50700e68757005e029000841f7800fb
:10359c00d4912900841f780063f50700e487570055
:1035ac006e029000841f780054922900841f7800ca
:1035bc005df50700e48757007e029000841f7800b9
:1035cc00d4922900841f780057f50700e487570030
:1035dc004f04be000080fa00000006000a00fa004a
:1035ec00889fbe002007980031079800420798007a
:1035fc003e029000e00f5200250032004e02900077
:10360c00e00f520022003200be0290004e029000e9
:10361c00848f52001e003d003e029000cfa2de00bf
:10362c000400be005ff407000004be004e029000d0
:10363c00cfa2de000400be005af407000002be0058
:10364c000401be000800be0014f407000002be0016
:10365c00048fbe002e029000c222dd00c482200026
:10366c00048242001402be001e01be000400be0013
:10367c00adf307000002be002e039000c233dd0044
:10368c00c682200006834300048bbe00090037006d
:10369c00ae02900024822000048242001442780082
:1036ac000442e8002e03900025822000850243008e
:1036bc00844a78004f04be000080fa000000060027
:1036cc000000fa009420a90094a0a90098a0a900d9
:1036dc0098c0a90098e0a9009900a90096c0a9007b
:1036ec0096e0a900140a80000400a1000410a100b7
:1036fc000420a100140a8800340a80000400a100f0
:10370c000410a1000420a100340a8800540a80008f
:10371c000400a1000410a1000420a100540a880098
:10372c00740a80000400a1000410a1000420a10070
:10373c00740a8800940a80000400a1000410a100ff
:10374c000420a100940a8800b40a80000400a1009f
:10375c000410a1000420a100b40a8800d40a80003f
:10376c000400a1000410a1000420a100d40a8800c8
:10377c00f40a80000400a1000410a1000420a100a0
:10378c00f40a88000080fa00000006000000fa002d
:10379c0005852000150278000400a100840a780039
:1037ac00048520008002eb0025029800048520008f
:1037bc008002eb0035029800048520008002eb00ab
:1037cc001502980085852000150278000400a100e0
:1037dc00840a7800848520008002eb002502980082
:1037ec00848520008002eb0035029800848520003f
:1037fc008002eb0015029800058620001502780067
:10380c000400a100840a7800048620008002eb00ea
:10381c0025029800048620008002eb0035029800f7
:10382c00048620008002eb0015029800858620009b
:10383c00150278000400a100840a78008486200018
:10384c008002eb0025029800848620008002eb00a9
:10385c0035029800848620008002eb001502980047
:10386c0005872000150278000400a100840a780066
:10387c00048720008002eb002502980004872000ba
:10388c008002eb0035029800048720008002eb00d8
:10389c001502980085872000150278000400a1000d
:1038ac00840a7800848720008002eb0025029800af
:1038bc00848720008002eb0035029800848720006a
:1038cc008002eb0015029800058820001502780094
:1038dc000400a100840a7800048820008002eb0018
:1038ec0025029800048820008002eb003502980025
:1038fc00048820008002eb001502980085882000c7
:10390c00150278000400a100840a78008488200045
:10391c008002eb0025029800848820008002eb00d6
:10392c0035029800848820008002eb001502980074
:10393c0002003700040a800004408800140a80004a
:10394c0068026200e00f5200faff3a0002003700f2
:10395c00240a800004408800340a80006802620057
:10396c00e00f5200faff3a0002003700440a8000d0
:10397c0004408800540a800068026200e00f520084
:10398c00faff3a0002003700640a80000440880005
:10399c00740a800068026200e00f5200faff3a00dd
:1039ac0002003700040a800004408800940a80005a
:1039bc0068026200e00f5200faff3a000200370082
:1039cc00240a800004408800b40a80006802620067
:1039dc00e00f5200faff3a0002003700440a800060
:1039ec0004408800d40a800068026200e00f520094
:1039fc00faff3a0002003700640a80000440880095
:103a0c00f40a800068026200e00f5200faff3a00ec
:103a1c000080fa00000006000000fa009420a800c4
:103a2c0094a0a80098a0a80098c0a80098e0a800ae
:103a3c009900a80096c0a80096e0a80053ff0700c4
:103a4c00140a80000400a0000410a1000420a100ae
:103a5c00140a8800340a80000400a0000410a1009d
:103a6c000420a100340a8800540a80000400a0003d
:103a7c000410a1000420a100540a8800740a8000dc
:103a8c000400a0000410a1000420a100740a880006
:103a9c00940a80000400a0000410a1000420a100de
:103aac00940a8800b40a80000400a0000410a1004d
:103abc000420a100b40a8800d40a80000400a000ed
:103acc000410a1000420a100d40a8800f40a80008c
:103adc000400a0000410a1000420a100f40a880036
:103aec000080fa00000006000000fa000002eb0063
:103afc0034088800c8ff070000c42900010020001a
:103b0c004806070000e224000100200045060700db
:103b1c00050a80000485200015029800050a800023
:103b2c000485200014029000848252000485200039
:103b3c0025029800050a80000485200014029000dc
:103b4c00848252000485200035029800250a8000ea
:103b5c008485200015029800250a800084852000a9
:103b6c001402900084825200848520002502980063
:103b7c00250a800084852000140290008482520063
:103b8c008485200035029800450a800004862000b8
:103b9c0015029800450a800004862000140290004b
:103bac00848252000486200025029800450a800079
:103bbc0004862000140290008482520004862000a7
:103bcc0035029800650a8000848620001502980052
:103bdc00650a8000848620001402900084825200c2
:103bec008486200025029800650a800084862000c7
:103bfc0014029000848252008486200035029800c2
:103c0c00850a80000487200015029800850a800030
:103c1c000487200014029000848252000487200044
:103c2c0025029800850a8000048720001402900069
:103c3c00848252000487200035029800a50a800077
:103c4c008487200015029800a50a80008487200034
:103c5c001402900084825200848720002502980070
:103c6c00a50a8000848720001402900084825200f0
:103c7c008487200035029800c50a80000488200043
:103c8c0015029800c50a80000488200014029000d8
:103c9c00848252000488200025029800c50a800006
:103cac0004882000140290008482520004882000b2
:103cbc0035029800e50a80008488200015029800df
:103ccc00e50a80008488200014029000848252004f
:103cdc008488200025029800e50a80008488200052
:103cec0014029000848252008488200035029800cf
:103cfc0073fe0700048520003402900084027800d3
:103d0c0004852000240290000501780084007800ce
:103d1c001000200031fe0700848520003402900042
:103d2c00840278008485200024029000050178002c
:103d3c00840078002000200028fe07000486200064
:103d4c003402900084027800048620002402900043
:103d5c000501780084007800300020001ffe070069
:103d6c00848620003402900084027800848620002f
:103d7c0024029000050178008400780040002000a7
:103d8c0016fe07000487200034029000840278009d
:103d9c00048720002402900005017800840078003c
:103dac00500020000dfe0700848720003402900094
:103dbc00840278008487200024029000050178009a
:103dcc00840078006000200004fe070004882000b6
:103ddc0034029000840278000488200024029000b1
:103dec00050178008400780070002000fbfd0700be
:103dfc00848820003402900084027800848820009b
:103e0c0024029000050178008400780080002000d6
:103e1c00f2fd07000080fa00000006000000fa0026
:103e2c000002eb0034088800fbfe070000c42900e8
:103e3c00010020007b05070000e2240001002000a7
:103e4c0078050700050a80000485200015029800fb
:103e5c00050a800004852000140290008482520020
:103e6c000485200025029800050a800004852000a6
:103e7c0014029000848252000485200035029800c0
:103e8c00250a80008485200015029800250a8000f0
:103e9c0084852000140290008482520084852000c6
:103eac0025029800250a80008485200014029000c9
:103ebc00848252008485200035029800450a8000d7
:103ecc000486200015029800450a80000486200014
:103edc00140290008482520004862000250298006f
:103eec00450a80000486200014029000848252004f
:103efc000486200035029800650a80008486200024
:103f0c0015029800650a8000848620001402900037
:103f1c00848252008486200025029800650a800065
:103f2c008486200014029000848252008486200033
:103f3c0035029800850a800004872000150298003d
:103f4c00850a8000048720001402900084825200ad
:103f5c000487200025029800850a80000487200031
:103f6c0014029000848252000487200035029800cd
:103f7c00a50a80008487200015029800a50a8000fd
:103f8c0084872000140290008482520084872000d1
:103f9c0025029800a50a8000848720001402900056
:103fac00848252008487200035029800c50a800064
:103fbc000488200015029800c50a8000048820009f
:103fcc00140290008482520004882000250298007c
:103fdc00c50a8000048820001402900084825200dc
:103fec000488200035029800e50a800084882000af
:103ffc0015029800e50a80008488200014029000c5
:10400c00848252008488200025029800e50a8000f2
:10401c00848820001402900084825200848820003e
:10402c0035029800a6fd070004852000340290009c
:10403c000403780004852000240290008402780098
:10404c000485200014029000860178000501780098
:10405c008400780010c0b300edfc070084852000bc
:10406c003402900004037800848520002402900020
:10407c008402780084852000140290008601780068
:10408c00050178008400780020c0b300e0fc070034
:10409c00048620003402900004037800048620007b
:1040ac002402900084027800048620001402900000
:1040bc0086017800050178008400780030c0b300d8
:1040cc00d3fc07008486200034029000040378009f
:1040dc0084862000240290008402780084862000cc
:1040ec0014029000860178000501780084007800a5
:1040fc0040c0b300c6fc07000487200034029000c7
:10410c0004037800048720002402900084027800c5
:10411c0004872000140290008601780005017800c5
:10412c008400780050c0b300b9fc070084872000dd
:10413c00340290000403780084872000240290004d
:10414c008402780084872000140290008601780095
:10415c00050178008400780060c0b300acfc070057
:10416c0004882000340290000403780004882000a6
:10417c00240290008402780004882000140290002d
:10418c0086017800050178008400780070c0b300c7
:10419c009ffc070084882000340290000403780000
:1041ac0084882000240290008402780084882000f7
:1041bc0014029000860178000501780084007800d4
:1041cc0080c0b30092fc07000080fa0000000600db
:1041dc000000fa00889fbe00a480200014427800e2
:1041ec00e04f520058003a0094408000cfa2de000d
:1041fc000400be006bf107000004be008440800088
:10420c00cfa2de000400be0066f107000002be0073
:10421c000401be000800be00a3f107000002be00ae
:10422c00b4408800c5408800a4408000cfa2de00c6
:10423c000400be005bf107000004be008440800057
:10424c00cfa2de000400be0056f107000002be0043
:10425c000401be000800be0093f107000002be007e
:10426c00d4408800e54088006022b8008441880072
:10427c00954188006022b800a4418800b5418800af
:10428c006022b800c4418800d54188006022b80083
:10429c00e4418800f54188006022b800044288009f
:1042ac00154288006022b8002442880035428800fc
:1042bc006022b80044428800554288006022b80051
:1042cc0064428800754288000042eb00044078008c
:1042dc0023e8b7000042eb000440780024e8b70064
:1042ec000042eb000440780025e8b7000042eb00e8
:1042fc000440780026e8b7000042eb000440780048
:10430c0027e8b7000042eb000440780028e8b7002b
:10431c000042eb000440780029e8b7000042eb00b3
:10432c00044078002ae8b7008440800034408800bc
:10433c0014c0b300044078000be8b70014c0b300fd
:10434c00044078000ae8b7004f04be000080fa0071
:10435c00000006003600f800809fbe00829fbe0061
:10436c00849fbe00869fbe000000fa0034118000be
:10437c00144088004480200014427800e04f520022
:10438c0050003a00144080006123b900f4fb2f0068
:10439c00f5ff2f000602420087824a0086012000aa
:1043ac0007002000860f5200878f5a004c003e00f9
:1043bc0004600100180037001b0037004a0037006a
:1043cc0049003700480037004700370046003700e7
:1043dc0045003700440037004300370042003700e7
:1043ec0041003700400037003f0037003e003700e7
:1043fc003d0037003c0037003b0037003a003700e7
:10440c0039003700380037000b0037000c0037003c
:10441c00350037000d003700744080008440880060
:10442c006bff07003100370014c0b3000440780064
:10443c0004e8b7002d003700e842a8002b00370035
:10444c00e842a90000000000280037005093290022
:10445c00abf107004417800064026200e00f5200c9
:10446c000a0032003417800068026200e00f52002c
:10447c0003003a0060942900a1f107000c003700fa
:10448c00d09429009ef107000900370034178000f2
:10449c0068026200e00f52000300320040952900d0
:1044ac0097f1070002003700b095290094f107003e
:1044bc0024962900841f78009bf107008f87e90060
:1044cc000a003700154080007440800004aab9002f
:1044dc0004027800844088003dff07000300370089
:1044ec000000000001003700000000008560a900fa
:1044fc000080fa004f03be004f02be004f01be0009
:10450c004f00be003600f90000400600849fbe003c
:10451c000000fa0004852000140278006102620099
:10452c00e00f52000d003a00a51680000410200088
:10453c0004826200e00f520003003a00040a80007b
:10454c00044088000f003700058520001502780014
:10455c000400a000840a78000a003700a516800029
:10456c000410200004826200e00f520005003200ab
:10457c009420a90005852000150278000400a100f4
:10458c00840a78008420a9000080fa004f02be0043
:10459c0000400600849fbe000000fa0084852000c5
:1045ac001402780061026200e00f52000d003a0024
:1045bc00a51680000420200004826200e00f520047
:1045cc0003003a00240a8000044088000f003700e2
:1045dc0085852000150278000400a000840a78006c
:1045ec000a003700a5168000042020000482620017
:1045fc00e00f52000500320094a0a9008585200030
:10460c00150278000400a100840a780084a0a90097
:10461c000080fa004f02be0000400600849fbe00de
:10462c000000fa0004862000140278006102620087
:10463c00e00f52000d003a00a51680000440200047
:10464c0004826200e00f520003003a00440a80002a
:10465c00044088000f003700058620001502780002
:10466c000400a000840a78000a003700a516800018
:10467c000440200004826200e00f5200050032006a
:10468c0098a0a90005862000150278000400a1005e
:10469c00840a780088a0a9000080fa004f02be00ae
:1046ac0000400600849fbe000000fa0084862000b3
:1046bc001402780061026200e00f52000d003a0013
:1046cc00a51680000480200004826200e00f5200d6
:1046dc0003003a00640a8000044088000f00370091
:1046ec0085862000150278000400a000840a78005a
:1046fc000a003700a51680000480200004826200a6
:10470c00e00f52000500320098c0a90085862000f9
:10471c00150278000400a100840a780088c0a90062
:10472c000080fa004f02be0000400600849fbe00cd
:10473c000000fa0004872000140278006102620075
:10474c00e00f52000c003a00a416800070026200c8
:10475c00e00f520003003a00840a800004408800f5
:10476c000e00370005872000150278000400a00019
:10477c00840a780009003700a416800070026200d9
:10478c00e00f52000500320098e0a90005872000d8
:10479c00150278000400a100840a780088e0a900c2
:1047ac000080fa004f02be0000400600849fbe004d
:1047bc000000fa0084872000140278006102620075
:1047cc00e00f52000d003a00a516800004022000f4
:1047dc0004826200e00f520003003a00a40a800039
:1047ec00044088000f0037008587200015027800f0
:1047fc000400a000840a78000a003700a516800087
:10480c000402200004826200e00f52000500320016
:10481c009900a90085872000150278000400a100ea
:10482c00840a78008900a9000080fa004f02be00bb
:10483c0000400600849fbe000000fa00048820009f
:10484c001402780061026200e00f52000c003a0082
:10485c004416800070026200e00f520003003a0020
:10486c00c40a8000044088000e0037000588200030
:10487c00150278000400a000840a780009003700b3
:10488c004416800070026200e00f520005003200f6
:10489c0096c0a90005882000150278000400a1002c
:1048ac00840a780086c0a9000080fa004f02be007e
:1048bc0000400600849fbe000000fa00848820009f
:1048cc001402780061026200e00f52000d003a0001
:1048dc00451680000402200004826200e00f5200a2
:1048ec0003003a00e40a8000044088000f003700ff
:1048fc0085882000150278000400a000840a780046
:10490c000a00370045168000040220000482620071
:10491c00e00f52000500320096e0a90085882000c7
:10492c00150278000400a100840a780086e0a90032
:10493c000080fa004f02be00004006000e00fa0094
:10494c0060079800ee02900024822000048242004e
:10495c0014427800e04f520027003a006e0290009b
:10496c00c222dd00c4822000048242001403be0077
:10497c00f4408000054180000401be000600be002a
:10498c00c9ef07000002be00048fbe00d4408000b7
:10499c00e54080000401be001e00be00e1ee0700f1
:1049ac000002be002407980035079800b440800030
:1049bc00c54080000401be002e009000be00900097
:1049cc0036ef07000002be00440798005507980018
:1049dc004e029000de029000849fbe006e0290009a
:1049ec00841f7800a48f2900841f78004ef00700e4
:1049fc00e8875700060037006e029000841f78008d
:104a0c0074902900841f780047f00700e487570052
:104a1c000080fa00000006000400fa00000f780085
:104a2c001107980045e7a900243a800004c0a100b2
:104a3c0004d0a10004e0a100243a88004567a90035
:104a4c00253a800004fe2f00048262000410a000ae
:104a5c00243a8800353a800004e02f00048262007a
:104a6c00e401b300343a8800243a80000460a100c9
:104a7c000470a100243a880036002000840720002e
:104a8c00a509200037742000844b7800854b7800f2
:104a9c00864b7800143a8000040378000600a000ce
:104aac00640420007505200027742000844b7800d6
:104abc00854b7800864b780000000000153a80008a
:104acc00040027008482620004002300848f5200bb
:104adc00faff3a0000000000153a800004022000a2
:104aec0004826200e00f5200fbff3200140520002c
:104afc00144088000002eb00344088000002eb00f8
:104b0c00444088000042eb000440780004e8b70001
:104b1c000042eb00044078000ae8b7000042eb00ca
:104b2c00044078000be8b7000042eb00044078002a
:104b3c000ce8b7002c83a8002ca3a800c682a80000
:104b4c00c6a2a800de42a800e442a900e462a800c4
:104b5c00dec2a800e842a90005178000040420006a
:104b6c0004826200e00f52000300320014c0b30054
:104b7c00044078000ce8b70011a1a8001021a9008e
:104b8c0010c1a900840880000440a1000450a100b9
:104b9c00840888000082eb006408880034058000db
:104bac0004c0a00004d0a10004e0a00034058800db
:104bbc0084e0a90094e0a90011e1a800f3fa070031
:104bcc0043a1a80047a1a8004ba1a8004fa1a80091
:104bdc0053a1a80057a1a8005ba1a8005fa1a80041
:104bec0042e1a80046e1a8004ae1a8004ee1a80075
:104bfc0052e1a80056e1a8005ae1a8005ee1a80025
:104c0c00140a80000450a1000460a100140a88005a
:104c1c00340a80000450a1000460a100340a88000a
:104c2c00540a80000450a1000460a100540a8800ba
:104c3c00740a80000450a1000460a100740a88006a
:104c4c00940a80000450a1000460a100940a88001a
:104c5c00b40a80000450a1000460a100b40a8800ca
:104c6c00d40a80000450a1000460a100d40a88007a
:104c7c00f40a80000450a1000460a100f40a88002a
:104c8c00140a80000400a1000410a1000420a1005b
:104c9c00140a8800340a80000400a1000410a1004a
:104cac000420a100340a8800540a80000400a100ea
:104cbc000410a1000420a100540a8800740a80008a
:104ccc000400a1000410a1000420a100740a8800b3
:104cdc00940a80000400a1000410a1000420a1008b
:104cec00940a8800b40a80000400a1000410a100fa
:104cfc000420a100b40a8800d40a80000400a1009a
:104d0c000410a1000420a100d40a8800f40a800039
:104d1c000400a1000410a1000420a100f40a8800e2
:104d2c000002eb0034088800240580000440a00039
:104d3c000450a1000460a100240588003405800003
:104d4c000440a0000450a1000460a10034058800b8
:104d5c00b40580000440a0000450a1000460a10030
:104d6c00b4058800b40580000480a0000490a10064
:104d7c0004a0a100b4058800b405800004c0a00004
:104d8c0004d0a10004e0a100b4058800c405800093
:104d9c000400a0000410a1000420a100c405880098
:104dac00740580000480a0000490a10004a0a10060
:104dbc00740588007405800004c0a00004d0a10014
:104dcc0004e0a100740588008420a90084a0a90037
:104ddc0088a0a90088c0a90088e0a9008900a900c2
:104dec0086c0a90086e0a9009420a90094a0a9007f
:104dfc0098a0a90098c0a90098e0a9009900a90062
:104e0c0096c0a90096e0a900040420004411880073
:104e1c0021a2a9002182a9002162a800041180000e
:104e2c000480a1000490a1000411880020e2a900d4
:104e3c0020c2a90020a2a9002082a9002062a900fa
:104e4c00041180000410a1000420a10004118800aa
:104e5c002002a90023e2a90023a2a80023c2a900d2
:104e6c002362a900141180000460a0000470a1004a
:104e7c001411880022a2a9002282a90021e2a80014
:104e8c002342a8004405800004c0a10004d0a00067
:104e9c0004e0a100440588008560a9009560a80085
:104eac0000a02500212620005e0107005096290055
:104ebc0013ef0700d096290011ef0700d7fb07006e
:104ecc00809729000eef0700109929000cef0700be
:104edc000100370000000000b4802000144278006c
:104eec00e14f520009003a0034408000841f7800e2
:104efc00a49a2900841f78000bef0700e487570061
:104f0c000042eb00044078000be8b7000002eb0015
:104f1c00444088002c003700f3fa0700444080001e
:104f2c000402e80044408800454080003440800082
:104f3c00848f520024003500100020007ffe0700f3
:104f4c00200020007dfe0700300020007bfe0700c3
:104f5c004000200079fe07005000200077fe07007b
:104f6c006000200075fe07007000200073fe070033
:104f7c008000200071fe070034408000841f780000
:104f8c00d49c2900841f7800e7ee0700e4875700c3
:104f9c0034408000841f7800f49e2900841f780020
:104fac00e1ee0700e48757000002eb003440880074
:104fbc000042eb00044078000ae8b7000042eb0026
:104fcc000440780004e8b700a48020001442780064
:104fdc00e14f5200bfff3a00b48020001442780029
:0c4fec00e04f5200ccff3200bbff37004a
:020000040000fa
:104ff80000080000900000000200000000005100be
:105008000000000000000000000000000000fa009e
:1050180000fa00002f0080000c0000003c42000055
:105028000048450000401c00460000000000000049
:105038000000000000000000000000000000000068
:105048000000000000000000000000000000000058
:105058000000000000000000000000000000000048
:105068000000000000000000000000000000000038
:105078000000000000000000000000000000000028
:105088000000000000000000000000000000000018
:105098000000000000000000000000000000000008
:1050a80000000000000000000000000000000000f8
:1050b800000000000000000000000000e00a0000fe
:1050c8000600000000000000ba0a000026000000e8
:1050d80002000000e10a000000e10a0009000000e7
:1050e80000020000e30a000000e30a000e020100cb
:1050f800000000000000000000000000060202009e
:1051080000000000ba0a0000900a00002a0000000f
:1051180002000000303132003334350036373800b1
:1051280039414200434445004600300031323300e3
:1051380034353600373839006162630064656600cb
:1051480000286e00756c6c0029000000f009000052
:10515800a0000000020000000100000000000000a4
:1051680000000a00000000000000000000640000c9
:105178000000000000000000e8030000000000003c
:1051880000001000270000000000000000a08600ba
:10519800010000000000000040420f000000000075
:1051a8000000800096980000000000000000e10068
:1051b800f50500000000000000ca9a003b0000004e
:1051c80000000000e40b5400020000000000e800aa
:1051d80076481700000000000010a500d4e8000081
:1051e80000000000a0724e001809000000004000f6
:1051f8007a10f3005a0000000080c600a47e8d00db
:105208000300000000c16f00f286230000000000c8
:105218008a5d78004563010000006400a7b3b6000a
:10522800e00d000000e889000423c7008a000000a0
:10523800900800006001000002000000000000006b
:1052480000000000f03f0000000000000000240003
:10525800400000000000000000594000000000006d
:10526800000040008f400000000000000088c300dc
:1052780040000000000000006af840000000000044
:10528800008084002e41000000000000d01263005e
:105298004100000000008400d79741000000000092
:1052a8000065cd00cd410000000020005fa0020095
:1052b8004200000000801d00af15440000000000ff
:1052c80040593e0029460000000000000000f000a0
:1052d8007f0000000000000000f07f0000000000d8
:1052e80000000000f07f0000000000000000f00057
:1052f8007f0000000000000000f07f0000000000b8
:1053080000000000f07f0000000000000000f00036
:105318007f0000000000000000f07f000000000097
:1053280000000000f07f0000000000000000f00016
:105338003f00000000a0990099b93f00000000005c
:1053480040e17a00843f00000000e0004d62500018
:105358003f00000000e0e200361a3f0000000000b5
:1053680080b5f800e43e00000000a000f7c6b000d9
:105378003e00000000a0f200d77a3e0000000000c6
:10538800e08e7900453e00000000e0000b2e110081
:105398003e00000000e0df007cdb3d000000000074
:1053a80000a19c00c73b0000000000004c48b4006e
:1053b80039000000000020006ca137000000000048
:1053c80000000000000000000000000000000000d5
:1053d80000000000000000000000000000000000c5
:1053e80000000000000000000000000000000000b5
:1053f80000000000000000000000000000000000a5
:105408000000000000000000000000000000000094
:1054180000000000e60a0000020000000200000090
:0854280001000000000000007b
:020000040000fa
:10543000f03fb1000180b10006003500ee03090025
:1054400000000000403fb1000180b100fbff3d00c3
:105450001000b000203fb0000200350000800900bd
:0854600000000000000006003e
:020000040000fa
:0200000401f009
:04000000cf0000002d
:020000040000fa
:0200000401f009
:04000400cf00000029
:020000040000fa
:0200000401f009
:0400080007000000ed
:020000040000fa
:0200000401f009
:04000c00faff0000f7
:020000040000fa
:0200000401f009
:040010003eff0000af
:020000040000fa
:0200000401f009
:040014007fff00006a
:020000040000fa
:0200000401f009
:04001800ffff0000e6
:020000040000fa
:0200000401f009
:04001c00feff0000e3
:00000001FF
